:020000040800F2
:10000000080600209D0100080F1F0008211D0008A0
:100010000D1F00085B0400087D230008000000009D
:100020000000000000000000000000002520000883
:100030007504000800000000111F000827200008B8
:10004000B7010008B7010008B7010008B7010008B0
:10005000B7010008B7010008B7010008B7010008A0
:10006000B7010008B701000877040008B7010008CD
:10007000B7010008B7010008B7010008B701000880
:10008000B7010008B7010008B701000869040008BB
:100090005D040008B7010008B70100087D040008EE
:1000A000B7010008B7010008B7010008B701000850
:1000B000B7010008B7010008B7010008B701000840
:1000C000B7010008B7010008B7010008B701000830
:1000D000B701000871230008B7010008B701000844
:1000E000B7010008B7010008B7010008B701000810
:1000F000B7010008B7010008B7010008B701000800
:10010000B7010008B7010008B7010008B7010008EF
:10011000B7010008B7010008B7010008B7010008DF
:10012000B7010008B7010008B7010008B7010008CF
:10013000B7010008B7010008B7010008B7010008BF
:10014000B7010008B7010008B7010008B7010008AF
:10015000B7010008B7010008B7010008B70100089F
:10016000B7010008B7010008B7010008B70100088F
:10017000B7010008B7010008B7010008000000003F
:10018000B7010008B7010008DFF80CD000F090F8C4
:1001900000480047152E0008080600200648804742
:1001A00006480047FEE7FEE7FEE7FEE7FEE7FEE75C
:1001B000FEE7FEE7FEE7FEE7BD2000088901000834
:1001C0002DE9F05F0546002092469B46884606468C
:1001D000814640241BE0284641464746224600F01F
:1001E00057F853465A46C01A914110D31146184643
:1001F000224600F03EF82D1A67EB01084F462246D2
:100200000120002100F035F817EB00094E41201EB7
:10021000A4F10104DFDC484631462A464346BDE8E6
:10022000F09FD2B201E000F8012B491EFBD27047CB
:100230000022F6E710B513460A4604461946FFF7B2
:10024000F0FF204610BD30B50B46014600202022AD
:10025000012409E021FA02F59D4205D303FA02F5D3
:10026000491B04FA02F52844151EA2F10102F1DC33
:1002700030BD202A04DB203A00FA02F1002070474A
:100280009140C2F1200320FA03F3194390407047D4
:10029000202A04DB203A21FA02F00021704721FADB
:1002A00002F3D040C2F12002914008431946704742
:1002B000064C074D06E0E06840F0010394E80700B3
:1002C00098471034AC42F6D3FFF762FF642F000862
:1002D000842F000801221021014800F019BE0000FF
:1002E0000000024000221021014800F011BE000071
:1002F00000000240F0B587B014216846FFF798FF70
:100300001848016841F002010160016801F0020132
:100310000591016841F0010101600068124E00F092
:100320000100059001221021304600F0F1FD0F4F31
:1003300001221146384600F0EBFD01241020CDE9E2
:100340000004022569463046CDE9024500F0E0FC94
:100350000094694638460194CDE9024500F0D8FC86
:1003600007B0F0BD303802400000024000040240F7
:1003700001221146014800F0CBBD000000040240FC
:1003800000220121014800F0C3BD0000000402402A
:10039000704702F0BABC02F0C5BC000070B5FFF7B0
:1003A000A9FFFFF7F5FF02F07DFA20B180240BA032
:1003B00002F012F802E002F0E1F9044602F040FC1B
:1003C00028B144F0400507A002F006F803E002F06F
:1003D000C9FB40EA0405284670BD00006572726FD3
:1003E00072310A006572726F72320A0070B514467B
:1003F0000D4640F0800000F017F806E0552000F0B0
:1004000013F8641E05F8010BE4B2002CF6D170BDA0
:1004100010B50C4640F0800000F006F8552000F0C2
:1004200003F8207010BD000001B582B04FF47A705F
:100430000090012301AA02A9024801F057F99DF892
:1004400004000EBD9000002010B50C46FFF7ECFF35
:100450002046BDE81040FFF7E7BFFEE7014800F087
:1004600092B9000068000020014800F08CB900003B
:10047000680000207047102000F03EBC202000F0F3
:100480003BBC000072B6064D4FF480544FF4FA7630
:100490002146284600F034FD304600F015FCF7E711
:1004A000001C024090F82020012A07D0022A05D023
:1004B000416A41F48021416201207047006842692D
:1004C0000A43426100207047F0B590F8205004685C
:1004D000A468012D05D0022D03D0416A41F480218A
:1004E00053E014F0406F01D1E5004BD5C4F3016433
:1004F000022C03D9416A41F4000146E00125A540E0
:100500001D608D684FF4C0739DB1CE6835434E6851
:1005100045EAC605066803EB0417F5514FF4C275AA
:10052000076805EB04150E697E51097D012905D088
:1005300009E00E88CD6845EA4655EBE701684E595B
:1005400046F480764E511179D2F805504FF4C676B4
:1005500041EA0525016806EB04168D511178D2F8A1
:1005600001204FF4C47541EA0221026805EB04152D
:100570005151006803EB0411425842F0010242500D
:100580000020F0BD416A41F4001141620120F0BD3C
:1005900010B590F82020012A07D0022A05D0416A20
:1005A00041F480214162012010BD3B48D0F8002277
:1005B00042F00102C0F80022D0F8002222F47C525E
:1005C000C0F80022D0F800224B6A42EA0322C0F8A9
:1005D00000220A7D02F01F0301229A40D0F81C324B
:1005E0009343C0F81C32CB69B3B9D0F80C329343B3
:1005F000C0F80C328C894B6864F31F434C6900EBE4
:10060000C404C4F840320C890B6864F31F434C697E
:1006100000EBC404C4F84432CB69012B16D1D0F8E6
:100620000C321343C0F80C320C884B6864F31F4340
:100630004C6900EBC404C4F840320C89CB6864F305
:100640001F434C6900EBC404C4F844328B69002B8F
:10065000D0F804320ED01343C0F804320B69002BDB
:10066000D0F8143208D01343C0F81432096A0129B3
:1006700004D008E09343EFE79343F5E7D0F81C126A
:100680001143C0F81C12D0F8001221F00101C0F88B
:100690000012002010BD000000640040704730B51B
:1006A00090F82040012C05D0022C03D0416A41F47F
:1006B00080215DE00468002955D02469A40754D046
:1006C0004FF4D874056804EB01142D5915F0040596
:1006D000956005682D594ED0ED08556005682C5978
:1006E00004F00204D4604FF4DA74056804EB0114DA
:1006F0002D5905F00F05156105682D59C5F307251E
:10070000956105682C59240C54614FF4DC7204681F
:1007100002EB0112A4581C700468A458240A5C70EF
:100720000468A458240C9C700468A258120EDA7055
:100730004FF4DE72046802EB0112A4581C710468C5
:10074000A458240A5C710468A458240C9C710468A1
:10075000A258120EDA71006881B1016941F02001DE
:100760000161002030BDE468A8E7416A41F400114E
:100770004162012030BD6D0D1560AFE7C16841F0E9
:100780002001C160EDE72DE9F05F05460068002417
:100790004669D0F804908768D0F80CB0D0F810A063
:1007A000D0F81880F10748D0F90714D001218160F2
:1007B000B80703D5284600F026FA0CE0780702D5E2
:1007C0004FF4006407E0380702D54FF4805402E08C
:1007D000284600F017FAF80516D529684FF48070FE
:1007E0008860B80503D5284600F00FFA0CE07805BC
:1007F00002D544F4005407E0380502D544F480449F
:1008000002E0284600F000FAF80316D529684FF4F4
:1008100080308860B80303D5284600F0F8F90CE072
:10082000780302D544F4004407E0380302D544F4C9
:10083000803402E0284600F0E9F9300707D55FEA86
:10084000CB6004D52968102044F40074C860700798
:100850004FF0080707D55FEA0B7004D52868C7601A
:10086000284600F05FF9B00706D52868C068800701
:1008700002D0284600F058F9700607D55FEACA6032
:1008800004D52968102044F480640861B00607D5B7
:100890005FEA0A7004D528680761284600F082F9EB
:1008A000F00606D528680069800702D0284600F0C7
:1008B0007AF9B00308D55FEAC96005D52968102028
:1008C0004860284600F070F9F00307D55FEA097028
:1008D00004D528684760284600F09AF9300446D5C8
:1008E0005FEA497040D5F00504D55FEAC87001D0D1
:1008F00044F00104B00504D55FEA887001D544F0E6
:100900000204700504D55FEA487001D544F0040480
:10091000300529D518F0700F26D008F07000402857
:1009200015D006DC102809D020280AD0302816D18E
:100930000AE050280ED0602811D10EE044F00804DF
:100940000DE044F010040AE044F0200407E044F015
:10095000400404E044F0800401E044F4807428681A
:10096000816921F070018161296804204860002CB0
:1009700005D0686A204368622846FFF78FFEBDE80D
:10098000F09F70B5040003D094F8200010B104E08B
:10099000012070BD204600F081F82068016841F018
:1009A0000101016000F0BAFA0546052604E000F0F6
:1009B000B5FA401B0A2811D820684068C007F6D055
:1009C0002068016821F00201016000F0A7FA0546E5
:1009D0000BE000F0A3FA401B0A2806D9606A40F435
:1009E0000030606284F82060D2E7206840688007A9
:1009F000EFD4207E0128206801683DD021F08001DD
:100A00000160607E01282068016838D021F0400133
:100A10000160A07E01282068016833D021F0200108
:100A20000160E07E0128206801682ED041F01001AD
:100A30000160207F01282068016829D021F0080189
:100A40000160607F01282068016824D021F0040142
:100A50000160D4E902010843D4E9041211430843B8
:100A60006168491E08432168C86100206062012056
:100A700084F82000002070BD41F08001C0E741F003
:100A80004001C5E741F02001CAE721F01001CFE79E
:100A900041F00801D4E741F00401D9E710B586B070
:100AA000044614216846FFF7C3FB1B4920688842AF
:100AB0002FD11A480021026842F0007202600068DB
:100AC00000F00070059015481038026842F00802E6
:100AD00002600068022200F0080005900320CDE9C2
:100AE0000210CDE900020920049069460C4800F08C
:100AF0000FF900221146132000F07EFA132000F0B7
:100B00006DFA00221146142000F076FA142000F04D
:100B100065FA06B010BD0000006400404038024095
:100B2000000C02407047000070B5054600F0F6F971
:100B3000194C6168401AB0F5967F07D94FF480517F
:100B4000164800F0DDF900F0E9F96060124B144A34
:100B5000083300212846FFF7A2FD08B1FFF792FCF9
:100B60000F480068A0F50071013905D0012903D0B4
:100B7000022901D003290ED1401EC0B220700849BD
:100B800000EB4000C03901EB0010BDE870400249A5
:100B9000083102F00FB970BD1C000020001C02409B
:100BA000EC010020704770477047000070B50446A4
:100BB00090F82000012804D0606A40F400206062B0
:100BC00018E0022084F820002068016821F001016B
:100BD000016000F0A3F905460EE000BF00F09EF9A9
:100BE000401B0A2808D9606A40F400306062052082
:100BF00084F82000012070BD20684068C007EDD156
:100C0000606270BD704770477047704770477047AB
:100C100070472DE9F0410446876D00F07FF90646E4
:100C200094F835000025022806D08020606584F8FD
:100C300034500120BDE8F0812068016821F01601E0
:100C400001602068416921F080014161206C08B990
:100C5000A06C20B12068016821F0080101602068C3
:100C6000016821F0010101600CE000F057F9801BE0
:100C7000052807D920206065032084F8350084F812
:100C80003450D7E720680068C007EED194F85C10B4
:100C90003F208840B860012084F8350084F8345043
:100CA0000020C7E790F83510022903D08021416564
:100CB00001207047052180F835100068016821F097
:100CC000010101600020704770B5044600F026F96C
:100CD0000546601C02D004480078044400F01EF968
:100CE000401BA042FAD370BD0C000020202801D187
:100CF00002F0F6B870470000044910B50A680242D5
:100D000002D00860FFF7F2FF10BD0000143C014064
:100D10002DE9F84FDFF8BCA1002201250AF1040BF0
:100D200003264FF00F090BF1040E00BF0B6805FA04
:100D300002F42340A34270D10F7907F00307012F7B
:100D400001D0022F16D187684FEA420806FA08FC44
:100D500027EA0C07D1F80CC00CFA08FC4CEA070C87
:100D6000C0F808C04768A7430C79C4F30014944046
:100D70003C4344600C79E443A4070AD0C4684FEABA
:100D8000420C06FA0CF7BC438F6807FA0CF72743AE
:100D9000C7600C7904F00304022C12D1D40800EBD4
:100DA000840CDCF820405707FF0E09FA07F824EA04
:100DB0000804D1F8108008FA07F848EA0408CCF8CB
:100DC000208004684FEA420C06FA0CF7BC430F7906
:100DD00007F0030707FA0CF7274307604C6814F481
:100DE000403F70D03C4C276847F480472760246818
:100DF00022F0030704F480440094384C07EB040C01
:100E0000DCF8084897074FEA177809FA08F7BC4357
:100E1000334FB84202D1002724E054E0314FB842AA
:100E200001D101271EE0304FB84201D1022719E05D
:100E30002E4FB84201D1032714E02D4FB84201D103
:100E400004270FE02B4FB84201D105270AE02A4FB3
:100E5000B84201D1062705E0284FB84201D1072743
:100E600000E0082707FA08F72743CCF80878DAF8F3
:100E700000405746D1F804C09C435FEACC3C00D503
:100E80001C433C60DBF800405F46D1F804C09C4343
:100E90005FEA8C3C00D51C433C60DEF8004077469E
:100EA000D1F804C09C435FEACC2C00D51C433C60C5
:100EB000084F0C373C68D1F804C09C435FEA8C2C87
:100EC00000D51C433C60521C102AFFF42FAFBDE834
:100ED000F88F0000003C01404438024000300140DF
:100EE000000002400004024000080240000C0240E2
:100EF000001002400014024000180240001C024092
:100F0000426921EA02030A4043EA024181617047D3
:100F10000AB1816170470904FBE70000014880685D
:100F2000704700000C0000200248816802781144DC
:100F3000816070470C0000200B4810B5016841F437
:100F400000710160016841F480610160016841F451
:100F500080710160032000F06FF80F2000F006F8A8
:100F600000F024F8002010BD003C024070B50D4D8B
:100F700004464FF47A712878B1FBF0F00A49096809
:100F8000B1FBF0F000F0A3FC48B9102C07D200220E
:100F90002146501E00F030F800206C6070BD01202A
:100FA00070BD00000C000020180000200A4808B5A1
:100FB000016841F480410160006800F480400090C5
:100FC0000548001F016841F080510160006800F091
:100FD0008050009008BD000044380240002809DB22
:100FE00000F01F02012191404009800000F1E02043
:100FF000C0F8001170470000F0B40E4B1B680C469F
:10100000C3F30223C3F10705042D00D90425191DDC
:10101000072901D2002300E0DB1E012606FA05F1B4
:10102000491E214099409E40761E16403143F0BC37
:1010300001F0E2B90CED00E0064900F00702086893
:101040004FF6FF03184040EA0220034A10430860AD
:10105000704700000CED00E00000FA052DE9F047B4
:101060000E46050065D0DFF81481D8F80000F7B20D
:1010700000F00700B04207D288F80070D8F80000EE
:1010800000F00700B04254D128683D4C810712D5CA
:10109000400703D5206840F4E0502060287800071E
:1010A00003D5206840F4604020602068A96820F0E3
:1010B000F000084320602878C0072DD030496868C8
:1010C0000839012812D0022813D0032811D009684A
:1010D000890700292DDA216821F0030101432160ED
:1010E000FFF71CFF814641F2883A0EE00968890348
:1010F000EFE709688901ECE7FFF710FFA0EB0901B2
:10110000514502D90320BDE8F0872068696800F0E6
:101110000C00B0EB810FEFD1D8F80010404601F081
:101120000701B14207D90770006800F00700B0421C
:1011300001D00120E7E72878400705D52068E96855
:1011400020F4E050084320602878000706D5206886
:10115000296920F4604040EAC100206000F038F8BE
:101160002168084AC1F30311515CC8400649086070
:1011700006480068FFF7FAFE0020C4E7003C024082
:1011800008380240382F0008180000201000002006
:101190000448054900680968044AC1F38221515C8A
:1011A000C84070471800002008380240482F000847
:1011B0000448054900680968044AC1F34231515C9A
:1011C000C84070471800002008380240482F000827
:1011D000154810B5006810F00C02144813D01449DB
:1011E000042A0FD0082A0ED10F4C241F226823682E
:1011F00002F03F025B0207D52068C0F38810A0FB15
:10120000010106E0084610BD2168C1F38811A1FB69
:1012100000010023FEF7D4FF2168C1F30141491CFE
:101220004900B0FBF1F010BD083802400024F40082
:10123000001BB7002DE9F84F04006ED02078DFF8CE
:101240004C93C007A9F104054AD009F104000168D4
:10125000C1F38101012908D00068C0F38100022890
:101260000AD1D9F80000400206D52868800337D596
:1012700060680028E1D033E06068B0F5803F10D0AE
:10128000B0F5A02F286810D020F48030286028689E
:1012900020F4802028606068A8B1FFF73FFE064672
:1012A0000DE0286840F48030F4E740F480202860A6
:1012B000F7E700BFFFF732FE801B642873D8286869
:1012C0008003F7D50CE0FFF729FE064605E000BFD6
:1012D000FFF724FE801B6428F0D828688003F7D429
:1012E0002078DFF8AC8280074FF0000A3ED5A7488F
:1012F000001D016811F00C0F08D00068C0F38100D8
:1013000002280BD1D9F80000400207D428688007D2
:1013100016D5E068012800D112E033E1E068B8B1E9
:101320000120C8F80000FFF7F9FD064605E000BF00
:10133000FFF7F4FD801B0228C0D828688007F7D586
:101340002868216920F0F80040EAC10028600DE01B
:10135000C8F800A0FFF7E2FD064604E0FFF7DEFD57
:10136000801B02281FD828688007F7D42078000740
:1013700022D5864F87486169703771B101210160BC
:10138000FFF7CCFD064604E0FFF7C8FD801B0228EE
:1013900009D838688007F7D50EE0C0F800A0FFF73D
:1013A000BDFD064605E082E0FFF7B8FD801B022880
:1013B0007DD838688007F7D42078400768D5DFF8F3
:1013C000CCB100270BF13C0BDBF80000C0000BD4C4
:1013D000DBF8001041F08051CBF80010DBF8000082
:1013E000012700F0805000906B4E3068C00510D48B
:1013F000306840F480703060FFF790FD009005E0A9
:10140000FFF78CFD0099401A022850D83068C005BB
:10141000F6D55E4EA0686C3601280FD005283068DE
:1014200010D020F001003060306820F004003060FF
:10143000A068B8B1FFF772FD00900FE0306840F08F
:101440000100F4E740F004003060F7E7FFF766FDC5
:101450000099411A41F28830814266D8306880078D
:10146000F4D50EE0FFF75AFD009007E0FFF756FDB8
:101470000099411A41F28830814256D8306880077D
:10148000F4D42FB1DBF8001021F08051CBF800101C
:10149000A069C8B33D49091D0968C1F3810102294A
:1014A0004AD00228504607D0C8F8600000E03CE06F
:1014B000FFF734FD04463BE04746C8F86000FFF7FD
:1014C0002DFD064605E000BFFFF728FD801B022822
:1014D0002BD828688001F7D4D4E907010843A16A12
:1014E0002E4A490802EB0141626A41EA821108432F
:1014F00094F82C1040EA0161C9F800100120386608
:10150000FFF70CFD044606E03EE000BFFFF706FDD6
:10151000001B022809D828688001F7D534E000BFF5
:10152000FFF7FCFC001B022802D90320BDE8F88F5E
:1015300028688001F4D427E00128F7D0D9F800000A
:10154000E26900F4800191421CD1226A00F03F015F
:10155000914217D147F6C071626A0140B1EB821F18
:1015600010D1A26A4FF0FF3300F4403103EB520276
:10157000B1EB024F06D194F82C1000F07060B0EB84
:10158000016F01D00120D1E70020CFE704380240ED
:1015900000004742800E4742007000400000FFFFFD
:1015A00070B5040009D0606A002540B1256165610D
:1015B000A56294F8510040B10CE0012070BD606854
:1015C000B0F5827FF4D0E561F2E784F85050204610
:1015D00000F044F8022084F851002068016821F0EE
:1015E00040010160A088218900F4827001F4044167
:1015F0000843A18901F400610843217C01F0020144
:101600000843217D01F001010843218B01F40071A1
:101610000843217F01F03801084394F8201001F0BD
:1016200080010843218D01F40051084321680860BE
:10163000A069042101EA104094F8241001F010017F
:101640000843216848602068C16921F40061C161D4
:101650006565012084F85100002070BDF0B587B0A9
:10166000044614216846FEF7E3FD1C4920688842C1
:1016700032D11B480024016841F4805101600068A8
:1016800000F48050059016481438016841F00201BA
:101690000160016801F002010591016841F001015A
:1016A00001600068022500F0010005901820CDE9D6
:1016B000000502AA0326052782E8D00069460948EA
:1016C000FFF726FB8020CDE9000502AA694682E8E3
:1016D000D0000548FFF71CFB07B0F0BD003001400B
:1016E0004438024000040240000002402DE9F84F57
:1016F000044690F8500000270A9E1D4692468B46ED
:101700004FF0010901280ED0012084F85000FFF7A6
:1017100005FC804694F85100616801280CD0B1F5B1
:10172000827F07D102E00220BDE8F88FA16809B9E5
:10173000042801D00227C2E0BBF1000F27D0BAF184
:10174000000F24D01DB394F85100042802D00520C6
:1017500084F8510000206065C4F838A0E587A587AB
:10176000C4F830B0E586A58620646064206801680E
:10177000490603D4016841F040010160E068B0F51A
:10178000006F606805D0E8B3012D46D07FE00127E7
:1017900095E008B1012D39D1206B21680088C8601F
:1017A000206B801C2063E08E401EE0862EE02068C7
:1017B000816889070FD5E18E69B1B9F1010F0AD1AE
:1017C000216B0988C160206B801C2063E08E401E65
:1017D000E0864FF0000920688168C9070CD0E18FCE
:1017E00051B1C068A16B0880A06B801CA063E08F22
:1017F000401EE0874FF00109FFF790FBA0EB0800C7
:10180000B04200E009E001D3701C50D1E08E002806
:10181000CDD1E08F0028CAD13FE0206B216800784D
:101820000873206B401C2063E08E401EE0862EE093
:101830002068816889070FD5E18E69B1B9F1010F80
:101840000AD1216B09780173206B401C2063E08E64
:10185000401EE0864FF0000920688168C9070CD05F
:10186000E18F51B1C068A16B0870A06B401CA063F0
:10187000E08F401EE0874FF00109FFF74FFBA0EB20
:101880000800B04202D3701C01D010E07EB1E08E9F
:101890000028CDD1E08F0028CAD1424631462046EB
:1018A00000F038FB28B101272020606507E00327FE
:1018B00005E0A06818B92068C16880680090012020
:1018C00084F85100002084F8500038462CE710B509
:1018D000401EB0F1807F01D3012010BD4FF0E02405
:1018E00060610F21601700F087FD0020A0610720D4
:1018F0002061002010BD704770470000F8B50168F6
:1019000004460868CA684B6910F00F0F4FF00005D5
:1019100059D003F0010602F49077374365D0C10730
:1019200005D0D10503D5216C41F0010121644107A7
:1019300005D5D90703D0216C41F00201216481074C
:1019400005D5D90703D0216C41F0040121640107BA
:1019500007D502F02001314303D0216C41F008018A
:101960002164216C00293AD0800604D5900602D566
:10197000204600F0DAFB20684069216CC0F380103B
:10198000090700D460B3204600F0A8FB2068406936
:10199000400621D52068143050E8001F21F0400196
:1019A00040E80012002AF5D1A06BA8B16C4901658E
:1019B000A06BFFF777F9002811D0A06B016D01B083
:1019C000BDE8F040084783060FD593060DD52046A5
:1019D000BDE8F84000F0A9BB2046FFF78DFFF8BD39
:1019E0002046FFF789FF2564F8BD266B2023012ED2
:1019F00079D1C60677D5D60675D5086848680090AF
:101A00004869400640D5A16B086840680004000C96
:101A1000EAD0A28D8242E7D9E085C869B0F5807F1F
:101A20002DD020680C3050E8001F21F4807140E870
:101A30000012002AF5D12068143050E8001F21F070
:101A4000010140E80012002AF5D12068143050E866
:101A5000001F21F0400140E80012002AF5D184F86F
:101A60003E30256320680C3050E8001F21F0100143
:101A700040E80012002AF5D1A06BFFF7CAF8A08D4C
:101A8000E18D401A81B229E0A08DE18D401A81B22A
:101A9000E08D0028A8D00029A6D020680C3050E89E
:101AA000002F22F4907240E80026002EF5D1206825
:101AB000143050E8002F22F0010240E80026002EEA
:101AC000F5D184F83E30256320680C3050E8002FB3
:101AD00022F0100240E80023002BF5D12046FFF74A
:101AE0000AFFF8BDFFE705062BD5150629D594F8A2
:101AF0003D002128F5D1A068B0F5805F01D12069B3
:101B0000B0B1206A411C2162216800784860E08CF5
:101B1000401E0004000CE084E3D12068C16821F07D
:101B20008001C1602068C16841F04001C160D8E710
:101B3000206A0088C0F308004860206A801C206288
:101B4000E5E74006CDD55006CBD5CA68204622F041
:101B50004002CA6084F83D3000F0E1F8C1E70000BF
:101B6000CD20000870B5040004D094F83D00002595
:101B700010B106E0012070BD84F83C50204600F012
:101B800023F8242084F83D002068C16821F4005126
:101B9000C160204600F02AFB2068016921F49041D1
:101BA00001612068416921F02A0141612068C16812
:101BB00041F40051C1602564202084F83D0084F880
:101BC0003E00002070BD0000F0B587B0044614212F
:101BD0006846FEF72DFB2049206888423AD11F480D
:101BE0000024016841F010010160006800F010005D
:101BF00005901A481438016841F00201016001683B
:101C000001F002010591016841F0010101600068E5
:101C1000022500F0010005908020CDE9000502AA10
:101C20000326072782E8D00069460D48FFF770F8C1
:101C30002802CDE9000502AA694682E8D0000948D9
:101C4000FFF766F8002205212520FFF7D5F92520AA
:101C5000FFF7C4F907B0F0BD00100140443802405E
:101C60000004024000000240704700002DE9F843E4
:101C7000044690F83D001F4616460D4620284CD1DC
:101C8000C5B1BEB194F83C00012846D0012084F8CB
:101C90003C004FF00008C4F84080212084F83D004B
:101CA000FFF73CF9A6848146E684A068B0F5805F22
:101CB00003D004E00120BDE8F883206928B12E4656
:101CC0005FF0000584F83C800EE00026FAE78021F2
:101CD000204600F011FBA0B9AEB116F8010B216847
:101CE0004860E08C401EE084E08C4B464FF00002E0
:101CF00000970028EBD14FF04001204600F0FCFA9D
:101D000030B10320D7E735F8020BC0F30800E6E74F
:101D1000202084F83D000020CDE70220CBE770476B
:101D2000FEE70000104810B50E4901600321416034
:101D300000214FF400228160C0E903124FF44012E9
:101D400042610176012242768176C1760177417740
:101D5000FEF717FE002803D0BDE81040FEF792BB47
:101D600010BD000000640040680000202DE9F04133
:101D700086B014216846FEF75BFA3F4800240168EC
:101D800041F002010160016801F002010591016862
:101D900041F001010160016801F001010591016854
:101DA00041F008010160016801F008010591016836
:101DB00041F080010160016801F080010591016836
:101DC00041F00401016000682C4E00F004004FF463
:101DD000E0550590002229463046FFF799F8284F34
:101DE000002210213846FFF793F8DFF89880002290
:101DF00001214046FFF78CF800950125CDE90154FB
:101E0000694630460394FEF783FFCDE900546946E6
:101E100038460294FEF77CFF10200326CDE900052A
:101E2000CDE9024669463846FEF772FF3020009041
:101E30004FF48810CDE9010469461348FEF768FFA6
:101E400003960095CDE9015469464046FEF760FFD0
:101E5000002211460A20FFF7CFF80A20FFF7BEF84C
:101E6000002211461720FFF7C7F81720FFF7B6F832
:101E700006B0BDE8F081000030380240001C02408E
:101E8000000002400004024000080240104810B563
:101E90000E4901604FF48271416000218160C16090
:101EA0004FF400720161C0E905122022C0E9072148
:101EB000416281620A21C162FFF772FB002803D0F0
:101EC000BDE81040FEF7DEBA10BD00000030014052
:101ED000900000200C4810B50A4901604FF4E13130
:101EE0004160002181600C22C160C0E9041281615F
:101EF000C161FFF737FE002803D0BDE81040FEF7B0
:101F0000C1BA10BD00100140E8000020FEE7FEE766
:101F10007047000038B504461248134B0068B0FB08
:101F2000F3F04FF47A73584300906068B0F5827F05
:101F30000DD10B46009200228021204600F016F8B9
:101F400070B1606D40F020006065032038BD0098DE
:101F500030B1401E009020688068C0430006F6D56E
:101F6000002038BD1800002000366E012DE9F8432E
:101F70001E46914688460446089DFEF7CFFF401B4B
:101F8000351AFEF7CBFF074625480068C0F3CB3073
:101F9000684338E0701C37D0FEF7C0FFC01BA84272
:101FA00003D215B1009860B32CE02068416821F09D
:101FB000E00141606068B0F5827F0BD1A068B0F5A8
:101FC000004F02D0B0F5806F04D12068016821F085
:101FD00040010160A06AB0F5005F09D12068016886
:101FE00021F4005101602068016841F40051016052
:101FF000012084F85100002084F850000320BDE83F
:10200000F8830025401E00902068816838EA0100AE
:1020100004D000214945BDD10020F0E70121F9E7B6
:10202000180000207047FEF77FBF000030B593B066
:1020300030216846FEF7FCF814210CA8FEF7F8F8EA
:102040001C480025016841F080510160006800F0E3
:10205000805011901848016841F480410160006887
:10206000022400F4804011900120009000040190AF
:102070008001CDE9064006200890A820CDE909049A
:1020800004200B906846FFF7D5F870B90CA90F2013
:1020900081E831004FF4A0500F90E002109005212C
:1020A0000CA8FEF7DBFF002801D0FEF7EBF913B018
:1020B00030BD000040380240007000400248016816
:1020C00041F470010160704788ED00E010B5806B4D
:1020D0000021C185C184FFF70FFC10BD01680C31E0
:1020E00051E8002F22F4907241E80023002BF5D133
:1020F0000168143151E8002F22F0010241E8002369
:10210000002BF5D1016B012909D101680C3151E88F
:10211000002F22F0100241E80023002BF5D12021EE
:1021200080F83E1000210163704708B590F83E101A
:10213000222901D0022008BD82684FF480539A42C0
:1021400001D1016921B1816A9A421BD04AB10AE0EA
:102150000268816A5268C2F308020A80816A891C97
:1021600008E0026972B10268526802F07F020A70E8
:10217000816A491C8162C18D491E0904090CC1850F
:1021800003D019E002685268F1E70168CA6822F0DA
:102190002002CA600168CA6822F48072CA600168BD
:1021A0004A6922F001024A61202180F83E10016B49
:1021B000012903D0FFF758FD002008BD002101636D
:1021C00001680C3151E8002F22F0100241E8002391
:1021D000002BF5D101680A68D20602D50A68496861
:1021E0000091818DFFF787FBE6E7000070B504469C
:1021F00000680169E26821F44051114301612169DD
:10220000A068E26908436169114308432168CA680C
:1022100049F20C639A430243CA6020684169A2698B
:1022200021F440711143416131492068884202D054
:102230003049884202D1FEF7BBFF01E0FEF7A8FF5C
:10224000E2690023192164253226B2F5004F626845
:1022500028D0A0FB0101930F9200FDF7B1FF0146CA
:10226000B0FBF5F06FF01802504301EB800006EB75
:102270000010B0FBF5F000F0F002B1FBF5F002EB5E
:102280000012B1FBF5F06FF01803584301EB80002A
:1022900006EB0010B0FBF5F000F00F0021681044D1
:1022A000886070BDA0FB010192185B41FDF788FFBB
:1022B0000146B0FBF5F00201B1FBF5F06FF0180339
:1022C000584301EB800006EBC000B0FBF5F000F0D6
:1022D000F80002EB4002B1FBF5F0584301EB80003F
:1022E00006EBC000B0FBF5F000F00700D6E70000F9
:1022F00000100140001401402DE9F04198461746B6
:102300000E460446069D27E0681C25D02DB1FEF739
:1023100005FEA0EB0800A8421ED920680C3050E84A
:10232000001F21F4D07140E80012002AF5D1206886
:10233000143050E8001F21F0010140E80012002A8B
:10234000F5D1202084F83D0084F83E00002084F878
:102350003C000320BDE8F0812068006836EA0000F8
:1023600004D00020B842CFD00020F3E70120F9E7E5
:102370000148FFF7C3BA0000E8000020FEE770B58F
:102380008AB000240E9D009401940894049405944E
:10239000082406940C0A8DF800408DF80110110AEB
:1023A0008DF80210190A8DF804108DF80530290AED
:1023B0008DF806104FF400768DF8032002968DF804
:1023C000075008AB6A4602A9FEF77EF8002801D044
:1023D000FEF758F80AB070BD0FB4054B10B503A94D
:1023E000044A029800F028F810BC5DF814FB0000C5
:1023F000592D0008640000200907090E002804DB9D
:1024000000F1E02080F80014704700F00F0000F1A8
:10241000E02080F8141D704702E008C8121F08C1B0
:10242000002AFAD170477047002001E001C1121F55
:10243000002AFBD1704700002DE9FF4F8BB0884682
:102440000546002606E025280BD0DDE90D12904751
:102450006D1C761C28780028F5D10FB03046BDE8F9
:10246000F08F0024A146A2460122AE4900E00443B9
:1024700015F8013F203B02FA03F00842F7D1287813
:102480002A2810D06FF02F022878A0F130010929F6
:1024900015D809EB890102EB410144F0020400EB7D
:1024A00001096D1CF0E758F8041B5FEA010903D528
:1024B00044F40054C9F1000944F002046D1C28786A
:1024C0002E2817D115F8010F44F004042A280ED045
:1024D0006FF02F022878A0F1300109290AD80AEB01
:1024E0008A0102EB410100EB010A6D1CF2E758F88A
:1024F00004AB6D1C28786C280FD006DC4C2817D054
:1025000068280DD06A2814D104E0742810D07A28E5
:102510000FD10DE044F400140AE044F4801401E00B
:1025200044F440146978814202D104F580146D1C92
:102530006D1C2878692865D006DC00288DD06328BA
:1025400027D0642806D15DE06E2808D073282AD0F1
:10255000752877D0DDE90D129047761CE0E0C4F3D2
:102560000250022809D003280DD0D8F80010042802
:102570000DD00E6008F10408D2E0D8F80010F21770
:10258000C1E90062F6E7D8F800100E80F2E70E709D
:10259000F0E718F8041B8DF8001000208DF80100FA
:1025A000EB46012003E058F804BB4FF0FF30610711
:1025B0004FF0000701D40AE07F1C57450DDA87422F
:1025C000FADB1BF807100029F6D106E07F1C8742D2
:1025D000FCDB1BF807100029F8D1DDE90D23A9EB7E
:1025E00007008146214600F0B1F83044C61904E0E6
:1025F000DDE90D121BF8010B90477F1EF8D2214632
:10260000484688E058F8040BC4F302514FF00A0B17
:10261000032900D100B2042900D140B2002802DA17
:1026200040422D2102E0210505D52B218DF82410F3
:10263000012104E006E0E10710D02021F6E708AF11
:10264000089113E058F8040BC4F302514FF00A0B41
:10265000032900D180B2042900D1C0B20021EEE7E5
:102660005946FDF7F0FD303107F8011D0028F7D17C
:10267000ADEB070000F1200B600702D524F4803495
:1026800001E04FF0010ADA4502DDAAEB0B0000E0A1
:102690000020824600EB0B0108980144A9EB0100E1
:1026A0000A90E00306D4DDE90D2321460A9800F0E4
:1026B0004DF806444FF0000908E009A911F8090097
:1026C000DDE90D12904709F10109761C0899894549
:1026D000F3DBE0030CD5DDE90D2321460A9800F079
:1026E00035F8064404E0DDE90D1230209047761CF1
:1026F000BAF10001AAF1010AF5DC05E0DDE90D12ED
:1027000017F8010B9047761CBBF10001ABF1010BF0
:10271000F4DC0A982146DDE90D2300F005F80644B3
:102720006D1C97E6092801002DE9F04104460025BB
:102730001E461746880404D405E039462020B047D9
:102740006D1C641EF9D52846BDE8F0812DE9F041E5
:10275000044600251E469046C80301D5302700E0F8
:102760002027880404D505E041463846B0476D1C53
:10277000641EF9D52846BDE8F0810000F8B50020B8
:102780008DF800000446FDF7ADFD8020FDF74CFEFE
:102790005520FDF749FE5520FDF746FE8DF8000057
:1027A000FDF798FD9620FDF7F6FDFDF79BFD8020D7
:1027B000FDF73AFE5520FDF737FE5520FDF734FEB4
:1027C0008DF80000FDF786FD9620FDF7E4FDFDF78E
:1027D00089FDB6217E20FDF737FEFDF77BFD5020F9
:1027E000FDF7D7FDFDF77EFD8020FDF71DFE55208E
:1027F000FDF71AFE5520FDF717FE8DF80000FDF7D6
:1028000069FD9620FDF7C7FDFDF76CFD8020FDF703
:102810000BFE5520FDF708FE5520FDF705FE8DF84F
:102820000000FDF757FD9620FDF7B5FD9DF800006F
:102830001E2801D0FF20F8BD194D00BFFDF752FD45
:1028400004EB44067719A85D7978FDF7FDFDFDF7E7
:1028500041FD9620FDF79FFDFDF744FDA85D40F08A
:102860008000FDF7E1FD5520FDF7DEFD5520FDF769
:10287000DBFD8DF80000FDF72DFD9620FDF78BFDAB
:1028800078789DF80010884204D004EB4400284476
:102890008078F8BD641CE4B2062CCFD30020F8BDCC
:1028A00034000020F0B587B00020019002908DF830
:1028B00000000546FDF716FD8020FDF7B5FD55200B
:1028C000FDF7B2FD5520FDF7AFFD8DF80000FDF7D7
:1028D00001FD9620FDF75FFDFDF704FD8020FDF76B
:1028E000A3FD5520FDF7A0FD5520FDF79DFD8DF8BA
:1028F0000000FDF7EFFC9620FDF74DFDFDF7F2FC23
:10290000B6217E20FDF7A0FDFDF7E4FC5020FDF789
:1029100040FDFDF7E7FC8020FDF786FD5520FDF723
:1029200083FD5520FDF780FD8DF80000FDF7D2FCFA
:102930009620FDF730FDFDF7D5FC8020FDF774FDF6
:102940005520FDF771FD5520FDF76EFD8DF8000057
:10295000FDF7C0FC9620FDF71EFD9DF800001E2827
:1029600002D0FF2007B0F0BD7D4C00BFFDF7BAFCE0
:1029700005EB45063719A05D7978FDF765FDFDF794
:10298000A9FC9620FDF707FDFDF7ACFCA05D40F02B
:102990008000FDF749FD5520FDF746FD5520FDF768
:1029A00043FD8DF80000FDF795FC9620FDF7F3FC44
:1029B00078789DF80010884204D005EB450020444B
:1029C0008078CFE75020FDF7E4FC6D1CEDB2042DBC
:1029D000CCD30025FDF786FC05EB45073E19717B3E
:1029E000307BFDF731FDFDF775FC9620FDF7D3FC3C
:1029F000FDF778FC307B40F08000FDF715FD552099
:102A0000FDF712FD5520FDF70FFD8DF80000FDF7D5
:102A100061FC9620FDF7BFFC707B9DF8001088429A
:102A200004D005EB45002044807B9BE75020FDF758
:102A3000B0FCFDF757FC9220FDF7F6FC062201A939
:102A40001220FDF7D3FCFDF745FC9DF805009DF82D
:102A500004106D1C41EA002003A9EDB221F8170013
:102A60009DF807009DF8062001EB470142EA00208F
:102A700048809DF809009DF80820022D42EA0020B8
:102A80008880A7D3FDF72EFC00216D20FDF7DCFC2C
:102A9000FDF720FC9620FDF77EFCFDF723FCED20E2
:102AA000FDF7C2FC5520FDF7BFFC5520FDF7BCFC2F
:102AB0008DF80000FDF70EFC9620FDF76CFC9DF8EC
:102AC000000008B104204DE7FDF70CFCB6217E2084
:102AD000FDF7BAFCFDF7FEFB5020FDF75AFCBDF9EF
:102AE0000C00BDF91210411A40F2555081420EDB24
:102AF000BDF90E10BDF91420891A814207DBBDF91A
:102B00001000BDF91610401AB0F52A7F01DA8020B6
:102B100028E7FDF7E7FB8020FDF786FC5520FDF751
:102B200083FC5520FDF780FC8DF80000FDF7D2FBFB
:102B30009620FDF730FCFDF7D5FB8020FDF774FCF7
:102B40005520FDF771FC5520FDF76EFC8DF8000057
:102B5000FDF7C0FB9620FDF71EFC002002E70000F9
:102B6000502F0008F8B500248DF80040FDF708FC50
:102B700069460020FDF74CFCFDF7FAFB9620FDF7B7
:102B80000AFCFDF7FDFB69460020FDF741FCFDF75F
:102B9000EFFB9620FDF7FFFBFDF7F2FBB6211420BB
:102BA000FDF752FCFDF7E4FB5020FDF7F2FBFDF7CB
:102BB000E7FB69460020FDF72BFCFDF7D9FB9620CB
:102BC000FDF7E9FBFDF7DCFB69460020FDF720FC83
:102BD000FDF7CEFB9620FDF7DEFB9DF800000F28E9
:102BE00001D0FF20F8BD154DFDF7CAFB04EB4406EC
:102BF0007719A85D7978FDF727FCFDF7B9FB9620DA
:102C0000FDF7C9FBFDF7BCFBA85D6946FDF700FCBD
:102C1000FDF7AEFB9620FDF7BEFB78789DF800101F
:102C2000884204D004EB440028448078F8BD641C3A
:102C3000E4B2062CD8D30020F8BD000046000020E6
:102C400038B500208DF800000446FDF799FB694671
:102C50000020FDF7DDFBFDF78BFB9620FDF79BFBCE
:102C6000FDF78EFB69460020FDF7D2FBFDF780FBE8
:102C70009620FDF790FBFDF783FBB6211420FDF7AE
:102C8000E3FBFDF775FB5020FDF783FBFDF778FBB9
:102C900069460020FDF7BCFBFDF76AFB9620FDF7B7
:102CA0007AFBFDF76DFB69460020FDF7B1FBFDF7F0
:102CB0005FFB9620FDF76FFBFDF762FB01213C20D7
:102CC000FDF7C2FBFDF754FB5020FDF762FB00BF90
:102CD000FDF756FB69463C20FDF79AFBFDF748FBE4
:102CE0009620FDF758FB641C9DF80000E4B28007B5
:102CF00001D40A2CECD30A2C03D09DF80000400725
:102D000001D5402038BD002038BD70B505460024EF
:102D10004FF47A7603E0304600F004F8641CAC42CD
:102D2000F9D370BD70B54FF0E02400226569094900
:102D3000A36909684843A1699942FCD002D2A3EB78
:102D4000010302E0A5EB010633441A440B4682421C
:102D5000F1D370BD6000002003490A685206FCD51B
:102D6000C2B24A6070470000001001401CB5044622
:102D7000002000900190FDF703FB06226946022027
:102D8000FDF734FBFDF7F4FA9DF801009DF8001003
:102D900041EA002020809DF803009DF8021041EADE
:102DA000002060809DF805009DF8041041EA002095
:102DB000A0801CBD10B58389C3810A88F1EE040A86
:102DC00052BA82814C88D31A64BA04808C88B3F5D5
:102DD000805F64BA00EE104AB8EE400A20EE200A86
:102DE000DFED0B0A20EE200A80ED010A897981725D
:102DF000416901DD491E03E013F5805F01DA491CDA
:102E0000416102EB4131028A891A816110BD0000E3
:102E10000000803838B5FEF78FF8FFF707F9FEF7A6
:102E2000A5FFFEF77FFFFFF755F8FFF72FF81848CB
:102E300000F044F81648FDF7B9FE4FF6FF730C2278
:102E400014491548FEF712FF14A0FFF7C5FA02E077
:102E50006420FDF739FFFDF7A1FA0028F8D116A08C
:102E6000FFF7BAFA02210A48FDF71CFB08B101205E
:102E700038BD00254FF4FA742046FDF725FF962251
:102E80000023114602480095FFF779FAF4E70000A5
:102E90006800002000000020E80000207573696EC3
:102EA00067207072696E74662073756363657373EF
:102EB00066756C6C790A00004F4B0A0000B58BB048
:102EC00000210122CDE906120091039101910291A6
:102ED0000491059108926946FDF75AFB0BB000BDBD
:102EE00010B50E4C2088B0F5FA7F0ED94FF4006172
:102EF0000B48FEF705F800202080A01CB0F9022046
:102F0000B0F9001007A0FFF767FA2088401C208066
:102F10000248BDE81040801CFFF728BF5800002081
:102F2000001C024078203D202533642079203D207C
:102F30002533640A000000000000000000000000CB
:102F4000010203040607080900000000010203044F
:102F500040AC037D04014103057C00026D0D026D50
:102F600009020000842F0008000000206800000013
:102F700018240008EC2F000868000020A0050000BD
:102F80002824000848656C6C6F20576F726C640AC7
:102F90000100000010000000000000000024F40008
:102FA0000000000000000000000000000000000021
:102FB000E7416B3A58A08B3A7D04017C000240AB9C
:102FC000034100055308065804070F000810820942
:102FD00011000A15800B16000C18010D00000000EE
:0C2FE000000000000000000000000000E5
:040000050800018965
:00000001FF
